{
  "contractName": "Certificate",
  "abi": [
    {
      "inputs": [
        {
          "internalType": "address",
          "name": "",
          "type": "address"
        }
      ],
      "name": "certificates",
      "outputs": [
        {
          "internalType": "string",
          "name": "candidateName",
          "type": "string"
        },
        {
          "internalType": "string",
          "name": "certificationName",
          "type": "string"
        },
        {
          "internalType": "string",
          "name": "organizationName",
          "type": "string"
        },
        {
          "internalType": "uint256",
          "name": "startDate",
          "type": "uint256"
        },
        {
          "internalType": "uint256",
          "name": "endDate",
          "type": "uint256"
        }
      ],
      "stateMutability": "view",
      "type": "function"
    },
    {
      "inputs": [
        {
          "internalType": "string",
          "name": "_candidateName",
          "type": "string"
        },
        {
          "internalType": "string",
          "name": "_certificationName",
          "type": "string"
        },
        {
          "internalType": "string",
          "name": "_organizationName",
          "type": "string"
        },
        {
          "internalType": "uint256",
          "name": "_startDate",
          "type": "uint256"
        },
        {
          "internalType": "uint256",
          "name": "_endDate",
          "type": "uint256"
        }
      ],
      "name": "issueCertificate",
      "outputs": [],
      "stateMutability": "nonpayable",
      "type": "function"
    },
    {
      "inputs": [],
      "name": "getCertificateDetails",
      "outputs": [
        {
          "internalType": "string",
          "name": "candidateName",
          "type": "string"
        },
        {
          "internalType": "string",
          "name": "certificationName",
          "type": "string"
        },
        {
          "internalType": "string",
          "name": "organizationName",
          "type": "string"
        },
        {
          "internalType": "uint256",
          "name": "startDate",
          "type": "uint256"
        },
        {
          "internalType": "uint256",
          "name": "endDate",
          "type": "uint256"
        }
      ],
      "stateMutability": "view",
      "type": "function"
    }
  ],
  "bytecode": "0x608060405234801561000f575f80fd5b50610c018061001d5f395ff3fe608060405234801561000f575f80fd5b506004361061003e575f3560e01c806216e52614610042578063327eb157146100765780633530891914610092575b5f80fd5b61005c600480360381019061005791906105ae565b6100b4565b60405161006d95949392919061067b565b60405180910390f35b610090600480360381019061008b9190610837565b610277565b005b61009a610338565b6040516100ab95949392919061067b565b60405180910390f35b5f602052805f5260405f205f91509050805f0180546100d29061092f565b80601f01602080910402602001604051908101604052809291908181526020018280546100fe9061092f565b80156101495780601f1061012057610100808354040283529160200191610149565b820191905f5260205f20905b81548152906001019060200180831161012c57829003601f168201915b50505050509080600101805461015e9061092f565b80601f016020809104026020016040519081016040528092919081815260200182805461018a9061092f565b80156101d55780601f106101ac576101008083540402835291602001916101d5565b820191905f5260205f20905b8154815290600101906020018083116101b857829003601f168201915b5050505050908060020180546101ea9061092f565b80601f01602080910402602001604051908101604052809291908181526020018280546102169061092f565b80156102615780601f1061023857610100808354040283529160200191610261565b820191905f5260205f20905b81548152906001019060200180831161024457829003601f168201915b5050505050908060030154908060040154905085565b6040518060a00160405280868152602001858152602001848152602001838152602001828152505f803373ffffffffffffffffffffffffffffffffffffffff1673ffffffffffffffffffffffffffffffffffffffff1681526020019081526020015f205f820151815f0190816102ed9190610afc565b5060208201518160010190816103039190610afc565b5060408201518160020190816103199190610afc565b5060608201518160030155608082015181600401559050505050505050565b60608060605f805f805f3373ffffffffffffffffffffffffffffffffffffffff1673ffffffffffffffffffffffffffffffffffffffff1681526020019081526020015f209050805f0181600101826002018360030154846004015484805461039f9061092f565b80601f01602080910402602001604051908101604052809291908181526020018280546103cb9061092f565b80156104165780601f106103ed57610100808354040283529160200191610416565b820191905f5260205f20905b8154815290600101906020018083116103f957829003601f168201915b505050505094508380546104299061092f565b80601f01602080910402602001604051908101604052809291908181526020018280546104559061092f565b80156104a05780601f10610477576101008083540402835291602001916104a0565b820191905f5260205f20905b81548152906001019060200180831161048357829003601f168201915b505050505093508280546104b39061092f565b80601f01602080910402602001604051908101604052809291908181526020018280546104df9061092f565b801561052a5780601f106105015761010080835404028352916020019161052a565b820191905f5260205f20905b81548152906001019060200180831161050d57829003601f168201915b5050505050925095509550955095509550509091929394565b5f604051905090565b5f80fd5b5f80fd5b5f73ffffffffffffffffffffffffffffffffffffffff82169050919050565b5f61057d82610554565b9050919050565b61058d81610573565b8114610597575f80fd5b50565b5f813590506105a881610584565b92915050565b5f602082840312156105c3576105c261054c565b5b5f6105d08482850161059a565b91505092915050565b5f81519050919050565b5f82825260208201905092915050565b5f5b838110156106105780820151818401526020810190506105f5565b5f8484015250505050565b5f601f19601f8301169050919050565b5f610635826105d9565b61063f81856105e3565b935061064f8185602086016105f3565b6106588161061b565b840191505092915050565b5f819050919050565b61067581610663565b82525050565b5f60a0820190508181035f830152610693818861062b565b905081810360208301526106a7818761062b565b905081810360408301526106bb818661062b565b90506106ca606083018561066c565b6106d7608083018461066c565b9695505050505050565b5f80fd5b5f80fd5b7f4e487b71000000000000000000000000000000000000000000000000000000005f52604160045260245ffd5b61071f8261061b565b810181811067ffffffffffffffff8211171561073e5761073d6106e9565b5b80604052505050565b5f610750610543565b905061075c8282610716565b919050565b5f67ffffffffffffffff82111561077b5761077a6106e9565b5b6107848261061b565b9050602081019050919050565b828183375f83830152505050565b5f6107b16107ac84610761565b610747565b9050828152602081018484840111156107cd576107cc6106e5565b5b6107d8848285610791565b509392505050565b5f82601f8301126107f4576107f36106e1565b5b813561080484826020860161079f565b91505092915050565b61081681610663565b8114610820575f80fd5b50565b5f813590506108318161080d565b92915050565b5f805f805f60a086880312156108505761084f61054c565b5b5f86013567ffffffffffffffff81111561086d5761086c610550565b5b610879888289016107e0565b955050602086013567ffffffffffffffff81111561089a57610899610550565b5b6108a6888289016107e0565b945050604086013567ffffffffffffffff8111156108c7576108c6610550565b5b6108d3888289016107e0565b93505060606108e488828901610823565b92505060806108f588828901610823565b9150509295509295909350565b7f4e487b71000000000000000000000000000000000000000000000000000000005f52602260045260245ffd5b5f600282049050600182168061094657607f821691505b60208210810361095957610958610902565b5b50919050565b5f819050815f5260205f209050919050565b5f6020601f8301049050919050565b5f82821b905092915050565b5f600883026109bb7fffffffffffffffffffffffffffffffffffffffffffffffffffffffffffffffff82610980565b6109c58683610980565b95508019841693508086168417925050509392505050565b5f819050919050565b5f610a006109fb6109f684610663565b6109dd565b610663565b9050919050565b5f819050919050565b610a19836109e6565b610a2d610a2582610a07565b84845461098c565b825550505050565b5f90565b610a41610a35565b610a4c818484610a10565b505050565b5b81811015610a6f57610a645f82610a39565b600181019050610a52565b5050565b601f821115610ab457610a858161095f565b610a8e84610971565b81016020851015610a9d578190505b610ab1610aa985610971565b830182610a51565b50505b505050565b5f82821c905092915050565b5f610ad45f1984600802610ab9565b1980831691505092915050565b5f610aec8383610ac5565b9150826002028217905092915050565b610b05826105d9565b67ffffffffffffffff811115610b1e57610b1d6106e9565b5b610b28825461092f565b610b33828285610a73565b5f60209050601f831160018114610b64575f8415610b52578287015190505b610b5c8582610ae1565b865550610bc3565b601f198416610b728661095f565b5f5b82811015610b9957848901518255600182019150602085019450602081019050610b74565b86831015610bb65784890151610bb2601f891682610ac5565b8355505b6001600288020188555050505b50505050505056fea2646970667358221220f370f68d1d986c6add5fee9858ddd96158468e282431ddcae27d35079f3fc7e364736f6c63430008150033",
  "immutableReferences": {},
  "source": "// Certificate.sol\r\n\r\npragma solidity ^0.8.0;\r\n\r\ncontract Certificate {\r\n    struct InternshipCertificate {\r\n        string candidateName;\r\n        string certificationName;\r\n        string organizationName;\r\n        uint256 startDate;\r\n        uint256 endDate;\r\n    }\r\n\r\n    mapping(address => InternshipCertificate) public certificates;\r\n\r\n    function issueCertificate(\r\n        string memory _candidateName,\r\n        string memory _certificationName,\r\n        string memory _organizationName,\r\n        uint256 _startDate,\r\n        uint256 _endDate\r\n    ) public {\r\n        certificates[msg.sender] = InternshipCertificate({\r\n            candidateName: _candidateName,\r\n            certificationName: _certificationName,\r\n            organizationName: _organizationName,\r\n            startDate: _startDate,\r\n            endDate: _endDate\r\n        });\r\n    }\r\n\r\n    function getCertificateDetails() public view returns (\r\n        string memory candidateName,\r\n        string memory certificationName,\r\n        string memory organizationName,\r\n        uint256 startDate,\r\n        uint256 endDate\r\n    ) {\r\n        InternshipCertificate storage certificate = certificates[msg.sender];\r\n        return (\r\n            certificate.candidateName,\r\n            certificate.certificationName,\r\n            certificate.organizationName,\r\n            certificate.startDate,\r\n            certificate.endDate\r\n        );\r\n    }\r\n}\r\n\r\n\r\n\r\n\r\n\r\n\r\n\r\n\r\n\r\n\r\n// SPDX-License-Identifier: UNLICENSED \r\n// pragma solidity ^0.8.0;\r\n\r\n// contract Certificate {\r\n//     mapping(address => bool) public isCertificateValid;\r\n\r\n//     function issueCertificate() public {\r\n//         isCertificateValid[msg.sender] = true;\r\n//     }\r\n\r\n//     function verifyCertificate(address user) public view returns (bool) {\r\n//         return isCertificateValid[user];\r\n//     }\r\n// }\r\n",
  "sourcePath": "C:\\Users\\Shriram\\OneDrive\\Desktop\\Blockchain\\contracts\\Certificate.sol",
  "compiler": {
    "name": "solc",
    "version": "0.8.21+commit.d9974bed.Emscripten.clang"
  },
  "schemaVersion": "3.4.16",
  "updatedAt": "2023-10-17T19:38:50.366Z",
  "devdoc": {
    "kind": "dev",
    "methods": {},
    "version": 1
  },
  "userdoc": {
    "kind": "user",
    "methods": {},
    "version": 1
  }
}